S01A0000436172726F46696E616C5F526F647269676F2E73726563F4
S11300000C9454010C9473010C94AF010C94710181
S11300100C9471010C9477020C9471010C9471018D
S11300200C9471010C9471010C94C8030C9471012B
S11300300C9471010C9471010C94FA010C947101EB
S11300400C9471010C9471010C944C040C94710186
S11300500C9471010C949C020C9471010C94710128
S11300600C9471010C94710105000000000005005E
S1130070005F000005000700070005147F147F14CB
S113008005242A7F2A12052313086462053649567B
S1130090205005080703000005001C22410005004C
S11300A041221C000514083E08140508083E0808EF
S11300B00500B07000000508080808080500606025
S11300C00000052010080402053E5149453E050084
S11300D0427F4000057249494946052141494D3353
S11300E0051814127F10052745454539053C4A4932
S11300F04931054121110907053649494936054663
S11301004949291E05000014000005004034000080
S11301100508142241000514141414140541221472
S11301200800050201590906053E415D594E057C4A
S11301301211127C057F49494936053E414141224D
S1130140057F4141413E057F49494949057F0909E8
S11301500909053E41415173057F0808087F0500E0
S1130160417F4100052040413F01057F08142241A1
S1130170057F40404040057F020C027F057F040854
S1130180107F053E4141413E057F09090906053EB0
S11301904151215E057F09192946052649494932FD
S11301A00501017F0101053F4040403F051F2040FC
S11301B0201F053F4038403F0563140814630503BE
S11301C00478040305615149454305007F4141001A
S11301D0050204081020050041417F0005040201C6
S11301E0020405404040404005070B000000052084
S11301F054547840057F28444438053844444428FE
S113020005384444287F0538545454180500087EA2
S113021009020518A4A49C78057F08040478050045
S1130220447D4000052040403D00057F10284400E7
S11302300500417F4000057C04780478057C0804AF
S1130240047805384444443805FC18242418051857
S1130250242418FC057C0804040805485454542438
S11302600504043F4424053C4040207C051C2040F8
S1130270201C053C4030403C054428102844054CD3
S11302809090907C054464544C4405000836410029
S1130290050000770000050041360800050402044B
S11302A0080405007F417F0011241FBECFEFD8E072
S11302B0DEBFCDBF11E0A0E0B1E0EEE9F1E202C0A3
S11302C005900D92A233B107D9F725E0A2E3B1E07E
S11302D001C01D92AD37B207E1F70E94DF040C9410
S11302E0CD100C9400001F920F920FB60F921124A0
S11302F02F933F934F935F936F937F938F939F932A
S1130300AF93BF93EF93FF9380910001909101010C
S1130310A0910201B0910301BC01CD016F5F7F4F39
S11303208F4F9F4F609300017093010180930201EE
S11303309093030180E090E00E948810FF91EF9178
S1130340BF91AF919F918F917F916F915F914F91E9
S11303503F912F910F900FBE0F901F9018951F92F1
S11303600F920FB60F9211242F933F934F935F93E5
S11303706F937F938F939F93AF93BF93EF93FF9369
S11303808091000190910101A0910201B0910301BB
S11303900197A109B1098093000190930101A093F1
S11303A00201B09303018D97A105B10560F48DE2BC
S11303B090E0A0E0B0E08093000190930101A0934D
S11303C00201B09303016091000180E090E00E947B
S11303D08810FF91EF91BF91AF919F918F917F9181
S11303E06F915F914F913F912F910F900FBE0F909E
S11303F01F9018951F920F920FB60F9211242F93EE
S11304003F934F935F936F937F938F939F93AF9398
S1130410BF93EF93FF9380915E0190915F01A09150
S11304206001B0916101BC01CD016F5F7F4F8F4FBF
S11304309F4F60935E0170935F018093600190937E
S1130440610128EE33E040E050E00E94910D672BFB
S1130450682B692BD9F58091560190915701A09191
S11304605801B0915901BC01CD01969587957795B6
S113047067950E94860C20E030E040E752E40E9439
S1130480140D0E94570C6093620170936301809372
S113049064019093650110925601109257011092D5
S11304A05801109259018091520190915301A091E9
S11304B05401B09155010196A11DB11D80935201C3
S11304C090935301A0935401B0935501FF91EF9180
S11304D0BF91AF919F918F917F916F915F914F9158
S11304E03F912F910F900FBE0F901F9018951F9260
S11304F00F920FB60F9211248F939F93AF93BF93D4
S11305008091560190915701A0915801B0915901E1
S11305100196A11DB11D8093560190935701A0939C
S11305205801B0935901BF91AF919F918F910F9052
S11305300FBE0F901F9018951F920F920FB60F9237
S11305401124CF92DF92EF92FF922F933F934F9318
S11305505F936F937F938F939F93AF93BF93EF9327
S1130560FF93C0903201D0903301E0903401F090B9
S11305703501C114D104E104F10409F057C0E8E7DE
S1130580F0E080819181A0E0B0E080934E019093EF
S11305904F01A0935001B0935101808191818F3F0D
S11305A0934069F48FEF90E0A0E0B0E080934A01BB
S11305B090934B01A0934C01B0934D0112C08091D4
S11305C07800909179009695879596958795A0E007
S11305D0B0E080934A0190934B01A0934C01B093F7
S11305E04D018091700190917101A0917201B091BF
S11305F073018C329140A105B105C0F480915A0178
S113060090915B01A0915C01B0915D014697A105B9
S1130610B10560F08AE590E0A0E0B0E080934A0183
S113062090934B01A0934C01B0934D0181E0C81607
S1130630D104E104F10409F044C080917800909160
S113064079008F3F9340C9F48FEF90E0A0E0B0E0D1
S11306508093460190934701A0934801B0934901C8
S113066084E690E0A0E0B0E08093420190934301DF
S1130670A0934401B093450124C060917800709127
S11306807900769567957695679580E090E060931C
S113069046017093470180934801909349010E9459
S11306A0860C29E334EB48EC5EE30E94140D0E94AF
S11306B0570C6093420170934301809344019093DB
S11306C0450182E0C816D104E104F10409F04BC0ED
S11306D080917800909179008F3F9340C9F48FEF17
S11306E090E0A0E0B0E080933E0190933F01A0939E
S11306F04001B093410188EC90E0A0E0B0E0809329
S11307003A0190933B01A0933C01B0933D012BC06F
S113071060917800709179007695679576956795E4
S1130720CB01A0E0B0E080933E0190933F01A09301
S11307304001B0934101BC01CD01695671098109A1
S113074091090E94860C24EA30E74DEB5EE30E9497
S1130750E50B0E94570C60933A0170933B01809320
S11307603C0190933D01FF91EF91BF91AF919F9117
S11307708F917F916F915F914F913F912F91FF9056
S1130780EF90DF90CF900F900FBE0F901F901895B1
S11307901F920F920FB60F9211240F931F932F9352
S11307A03F934F935F936F937F938F939F93AF93F5
S11307B0BF93EF93FF938091810086FF0FC08091D8
S11307C0860090918700A0E0B0E080936A01909346
S11307D06B01A0936C01B0936D0133C060918600EE
S11307E070918700CB01A0E0B0E000916A01109104
S11307F06B0120916C0130916D01801B910BA20B58
S1130800B30B880F991FAA1FBB1F880F991FAA1F1C
S1130810BB1FBC01CD01660F771F881F991F660F90
S1130820771F881F991F2AE330E040E050E00E94C0
S1130830910D209370013093710140937201509394
S11308407301E1E8F0E0908180E489278083FF91DF
S1130850EF91BF91AF919F918F917F916F915F9134
S11308604F913F912F911F910F910F900FBE0F90B9
S11308701F9018959093C5008093C40088E98093D5
S1130880C1008EE08093C20008959091C00095FF4E
S1130890FCCF8093C60008951F920F920FB60F925B
S11308A01124EF92FF920F931F932F933F934F9333
S11308B05F936F937F938F939F93AF93BF93CF93E4
S11308C0EF93FF93C091C600809139018F9380917B
S11308D038018F93809137018F93809136018F93E4
S11308E084E091E09F938F938EE691E09F938F93A2
S11308F00E94CD0D8DB79EB708960FB6F8949EBF93
S11309000FBE8DBFCC3629F460E083E090E00E94F6
S11309108810C43671F58091360190913701A09109
S11309203801B09139018A309105A105B10550F023
S113093085369105A105B10548F46894EE24E1F8E3
S1130940F12C09C0EE24E394F12C05C00F2EF3E042
S1130950EF2EF12CF02D00E010E008C0F801E25970
S1130960FE4F80810E9445040F5F1F4F0E151F0527
S1130970ACF3C63619F48BB180688BB9CE3619F452
S11309808BB18F778BB9C33721F498B188E089276D
S113099088B9FF91EF91CF91BF91AF919F918F91C2
S11309A07F916F915F914F913F912F911F910F9183
S11309B0FF90EF900F900FBE0F901F9018958EEF41
S11309C084B981E085B988EF87B980EF88B981E877
S11309D08AB98DE68BB992E094BD83E085BD29EF99
S11309E027BD90936E0094E49093810090E29093DD
S11309F06F009AE0909369008DBB94E09093680037
S1130A0090E190936D0090EC90937C009FEE909316
S1130A107A0010927B0098E390937E0093EA94BD51
S1130A2085BD87E690E00E943A0478940E945108BC
S1130A3020E048E065E088E690E00E94330A0E94E6
S1130A40230A8091000190910101A0910201B091CB
S1130A500301BC01CD0196958795779567950E9412
S1130A60860C23EC35EF48EC50E40E94140D20E092
S1130A7030E543EC57E40E94E50B6B017C01609187
S1130A8062017091630180916401909165010E94FB
S1130A90860CA70196010E94140D20E030E040E787
S1130AA052E40E94140D0E94570C9B01AC01609308
S1130AB05A0170935B0180935C0190935D01609196
S1130AC052017091530180915401909155010E94FB
S1130AD0810D20E13EE040E050E00E94910D209322
S1130AE066013093670140936801509369018091D6
S1130AF04A0187BD80E090E00E94801090E0A0E071
S1130B00B0E08093000190930101A0930201B0939F
S1130B10030180915E0180FDFFC00E941F0ACCE7A3
S1130B20D0E080EC8883109232011092330110924D
S1130B303401109235012FEF87EE93E0215080406D
S1130B409040E1F700C0000081EC888381E090E0F0
S1130B50A0E0B0E08093320190933301A09334017C
S1130B60B09335012FEF87EE93E021508040904001
S1130B70E1F700C0000065E083E70E94480887E0D1
S1130B8091E00E94630B65E08FE50E944808609144
S1130B9042017091430180914401909145010E946A
S1130BA07A0B82EC888382E090E0A0E0B0E080934E
S1130BB0320190933301A0933401B09335012FEFA8
S1130BC087EE93E0215080409040E1F700C00000A0
S1130BD062E382E00E94480889E091E00E94630B8E
S1130BE062E38BE40E94480860913A0170913B01F2
S1130BF080913C0190913D010E947A0B62E38AE569
S1130C000E94480886E191E00E94630B83E090E033
S1130C100E94801090E0A0E0B0E0809336019093B1
S1130C203701A0933801B093390140913A015091B2
S1130C303B0160913C0170913D0184179507A60723
S1130C40B70728F4642F83E090E00E94881065E0E1
S1130C5082E00E94480888E191E00E94630B65E00D
S1130C6088E20E944808609170017091710180913E
S1130C707201909173010E947A0B64E182E00E94F8
S1130C8048088FE191E00E94630B64E181E40E94D3
S1130C9048086091000170910101809102019091D6
S1130CA003010E947A0B63E282E00E9448088AE210
S1130CB091E00E94630B63E280E20E944808609125
S1130CC062017091630180916401909165010E94B9
S1130CD07A0B0FEF2AE24DE76CE18AE50E94B10935
S1130CE060E28FE50E944808609166017091670197
S1130CF080916801909169010E947A0B60E28EE60E
S1130D000E9448088FE291E00E94630B0E941A0837
S1130D1098B180E4892788B985B1817085B985B196
S1130D20806C85B9C5B160915A0170915B01809165
S1130D305C0190915D010F2EFAE0CF2ED12CE12CB5
S1130D40F12CF02DA70196010E94910D660F6E7192
S1130D506C2B65B98FE79EE30197F1F700C00000A3
S1130D6085B1817085B985B1806A85B9C5B1609155
S1130D705A0170915B0180915C0190915D01A70122
S1130D8096010E94910DCA01B901A70196010E9422
S1130D90910D660F6E716C2B65B98FE79EE3019719
S1130DA0F1F700C0000085B1817085B985B1806616
S1130DB085B9C5B160915A0170915B0180915C0164
S1130DC090915D0124E630E040E050E00E94910DF6
S1130DD0CA01B901A70196010E94910D660F6E71B7
S1130DE06C2B65B98FE79EE30197F1F700C0000013
S1130DF028CE669566956695E82FF0E080E8689FB2
S1130E00E00DF11D1124E358FE4F408308956695CB
S1130E1066956695E82FF0E080E8689FE00DF11D87
S1130E201124E358FE4F80810895CF93DF93DC01B2
S1130E30CB01FA0120E32287218720872783268399
S1130E40258324832383228321832083BB234CF49F
S1130E50B095A095909581959F4FAF4FBF4F31E0CE
S1130E6008C030E006C09A5CAA49BB4321812F5FC9
S1130E70218381152AEC92072AE9A2072BE3B20702
S1130E8094F706C0915EA54FB54022812F5F22835F
S1130E90811521EE920725EFA20725E0B20794F70A
S1130EA007C080589649A849B10923812F5F23833D
S1130EB0803826E9920728E9A207B10594F707C00C
S1130EC080549244AF40B10924812F5F248380343D
S1130ED022E492072FE0A207B10594F707C0805AD5
S1130EE09648A140B10925812F5F2583803A26E8E1
S1130EF0920721E0A207B10594F707C080519742F9
S1130F00A109B10926812F5F2683803127E2920748
S1130F10A105B1059CF707C0885E9340A109B109FA
S1130F2027812F5F2783883E23E09207A105B1051F
S1130F309CF707C084569109A109B10920852F5F48
S1130F40208784369105A105B105A4F706C00A9748
S1130F50A109B10921852F5F21878A309105A10557
S1130F60B105ACF706C00197A109B10922852F5F2D
S1130F702287181619061A061B06ACF320E001C0D6
S1130F802F5FDF01A20FB11D8C918033C9F333238E
S1130F9031F02150DF01A20FB11D8DE28C934AE0A4
S1130FA0421B30E00DC0832F90E0EF01C80FD91F22
S1130FB0820F911DDF01A80FB91F8C9188833F5FB9
S1130FC0431788F7E30FF11D1082DF91CF91089545
S1130FD00F931F93CF93DF93C82F8B01D42F0E94BD
S1130FE0C70B88E70E94D90B8C2F0E94D90BC0E055
S1130FF007C0F801EC0FF11D80810E94D90BCF5F6F
S1131000CD17B8F30E94D10BDF91CF911F910F91AF
S11310100895CF93DF931F92CDB7DEB7898341E064
S1131020BE016F5F7F4F80E00E94E8070F90DF9161
S1131030CF910895CF9381E20E94090880E00E9435
S113104009088FE70E94090882E20E94090880E0EB
S11310500E94090887E00E940908C0E00BC080E1F3
S1131060C89FB001112463587E4F40E180E40E9480
S1131070E807CF5FC03498F3CF910895882314F024
S1131080809374010895803410F480937501089559
S1131090CF93C62F0E943E088C2F0E944308CF9105
S11310A008950E94AE0B8EEA0E94090885ED0E9405
S11310B0090880EF0E94090888EA0E9409088FE362
S11310C00E94090883ED0E94090880E00E94090833
S11310D08DE80E94090884E10E94090880E40E94C6
S11310E0090880E20E94090880E00E94090881EA58
S11310F00E94090888EC0E9409088AED0E940908E8
S113110082E10E94090881E80E9409088FEF0E9489
S1131110090889ED0E94090881EF0E9409088BEDF6
S11311200E94090880E20E94090884EA0E940908D2
S113113086EA0E9409088EE20E9409088FEA0E944A
S1131140090860E080E00E944808E4E7F1E086EAEC
S11311508283178216821582118210820895FF926B
S11311600F931F93CF93DF93C62F142F0E94480829
S1131170E4E7F1E0F180D0816F2D8D2F0E94070705
S11311801F3F79F4C77001E010E020E030E004C0B4
S1131190000F111F221F331FCA95D2F7482F402B6F
S11311A00FC0C77001E010E020E030E004C0000F81
S11311B0111F221F331FCA95D2F70095402F4823D1
S11311C06F2D8D2F0E94F906DF91CF911F910F9102
S11311D0FF9008956F927F928F929F92AF92BF92E9
S11311E0CF92DF92EF92FF920F931F93CF93DF93EF
S11311F088230CF4A7C044230CF4A4C0603408F082
S1131200A1C0203408F09EC0261B99249394920E0A
S1131210481BD1E0D40F962F9770162F191BE92C79
S1131220F12C28E030E0291B3109E216F3067CF4A6
S113123028E030E02E193F094FEF50E06A0102C068
S1131240D594C7942A95E2F72C2DB92C04C028E034
S1131250B22EB91A2FEFA82EC22ED12C02C0CC0C5C
S1131260DD1C9A95E2F76C2C612F0E944808812CB2
S113127019C0E4E7F1E07180C081672D8C2F0E94D2
S113128007070F3F19F4462D482B03C04C2D4095FA
S1131290482381E08C0F80937401672D8C2F0E946A
S11312A0F90683948D1628F316C088E0B80E185FEB
S11312B0612F8A2D0E944808C0E00BC0E4E7F1E0EA
S11312C06181808191E0980F9083402F0E94F906FC
S11312D0CF5FCD1798F38B2D90E09C01285F3F4F93
S11312E0E216F30614F7B91468F5E81AF90A8FEF51
S11312F090E002C0880F991FEA94E2F7E82EE09488
S113130068E0610F8A2D0E94480810E019C0E4E7E4
S1131310F1E0F180C0816F2D8C2F0E9407070F3FF1
S113132019F44E2D482B03C04E2D4095482381E0DF
S11313308C0F809374016F2D8C2F0E94F9061F5F10
S11313401D1728F3DF91CF911F910F91FF90EF901C
S1131350DF90CF90BF90AF909F908F907F906F90D1
S11313600895DF92EF92FF920F931F93CF93DF9331
S113137088230CF445C044230CF442C0603408F0C4
S11313803FC02034E8F5D02F122FD42EF62EE82EAD
S1131390481718F0042FC82F09C0082FC42F06C0FF
S11313A04D2F6F2D8C2F0E94AF08CF5F0C17C0F705
S11313B0DE1418F00D2DCE2D09C00E2DCD2D06C036
S11313C04D2F612F8C2F0E94AF08CF5F0C17C0F7F1
S11313D01F1518F0212F6F2D02C02F2D612F0D2FF7
S11313E04E2D8E2D0E94EA081F1518F0212F6F2D07
S11313F002C02F2D612F0D2F4D2D8D2D0E94EA0837
S1131400DF91CF911F910F91FF90EF90DF9008959E
S11314101F93CF93DF93182FD0E00BC0412F6D2F74
S11314208C2F0E94F906CF5F01C0C0E0CC23B4F733
S1131430D85FD034D0F3DF91CF911F91089580E02D
S11314400E94080A089580917601873A21F486EA79
S11314508093760103C087EA8093760180917601B8
S11314600E94090808956623E4F04034D0F4223041
S1131470C0F4E4E7F1E0948383836583468350E01A
S113148041505109CA0199230CF407969595879503
S11314909595879595958795E4E7F1E08F5F878328
S11314A0208708954F925F926F927F928F929F92BE
S11314B0AF92BF92CF92DF92EF92FF920F931F935E
S11314C0CF93DF93A4E7B1E05C9011964C90119711
S11314D0805215969C91159717962C911797929F69
S11314E0900111242F5F3F4F829FA001839F500DD5
S11314F011241396ED91FC9114975A018FEFA81AB9
S1131500B80AE40FF51F7490842D8770982E642C0C
S1131510812C5FC0662D852D0E9448087501E80C5A
S1131520F11C670181E0C81AD10810E041C0809124
S1131530770190917801FC01EE0DFF1D2491492D56
S113154050E030E0092C02C0220F331F0A94E2F766
S1131550022F8820A1F0FC01EC0DFD1DE49188E030
S113156090E0841B950BF0E002C0F595E7958A9511
S1131570E2F70E2F022B80917B01C80ED11C8091C3
S11315807C01813039F4E4E7F1E0618180810E94DB
S11315900707082BC4E7D1E06981888191E0980F9F
S11315A09883402F0E94F9068F81E80EF11C1F5F7B
S11315B0171508F4BCCF80917C01811107C0E4E7C2
S11315C0F1E040E0618180810E94F90688E0680EC4
S11315D0839480917B01881608F49CCF242D269552
S11315E02695269530E080917A0190E0840D911D36
S11315F00197AC0112F4495F5F4F55954795559596
S11316004795559547952417350709F445C08FE349
S1131610861508F441C0662D852D0E944808A80C43
S1131620B11C81E0A81AB10800E029C0C4E7D1E0E8
S1131630F98018816F2D812F0E940707EB81FC81AF
S1131640EA0DFB1D449128E030E02919310950E0EE
S113165002C0559547952A95E2F7482B9885913015
S113166009F4482BC4E7D1E081E0810F88836F2D12
S1131670812F0E94F9068F81A80EB11C0F5F0715F8
S1131680A8F280917C01811107C0E4E7F1E040E019
S1131690618180810E94F906852D870D642D8F5FFD
S11316A00E944808DF91CF911F910F91FF90EF9016
S11316B0DF90CF90BF90AF909F908F907F906F906E
S11316C05F904F900895CF93DF93EC010DC0E4E752
S11316D0F1E09081258130E0290F311D203831055A
S11316E034F421960E94520A88818111F0CFDF914F
S11316F0CF9108950F931F93CF93DF93CDB7DEB7A8
S11317002C970FB6F894DEBF0FBECDBF61157105DF
S11317108105910521F480E30E94520A14C06115E9
S11317207105810520E8920771F08E010F5F1F4F4C
S11317302CE0F80111922A95E9F7A8010E941507F7
S1131740C8010E94630B2C960FB6F894DEBF0FBE3F
S1131750CDBFDF91CF911F910F91089587B1806123
S113176087B987B1806287B988B1806188B988B147
S1131770806288B91092B90088E48093B80084E04C
S11317808093BC0008958091B900887F089584EA0D
S11317908093BC008091BC008823E4F70E94C30BB3
S11317A0089585ED8093BC008091BC0084FDFCCF3E
S11317B008958093BB0084E88093BC008091BC00B2
S11317C08823E4F70E94C30B08950E94F90B0C943C
S11317D0DA0C0E94D30C58F00E94CC0C40F029F48F
S11317E05F3F29F00C94C30C51110C940E0D0C9412
S11317F0C90C0E94EB0C68F39923B1F3552391F3C0
S1131800951B550BBB27AA2762177307840738F06B
S11318109F5F5F4F220F331F441FAA1FA9F335D0C8
S11318200E2E3AF0E0E832D091505040E695001C7C
S1131830CAF72BD0FE2F29D0660F771F881FBB1F36
S1131840261737074807AB07B0E809F0BB0B802D14
S1131850BF01FF2793585F4F3AF09E3F510578F040
S11318600C94C30C0C940E0D5F3FE4F3983ED4F338
S1131870869577956795B795F7959F5FC9F7880F14
S1131880911D9695879597F90895E1E0660F771F66
S1131890881FBB1F621773078407BA0720F0621BF7
S11318A0730B840BBA0BEE1F88F7E09508950E9422
S11318B0F30C88F09F5798F0B92F9927B751B0F0DF
S11318C0E1F0660F771F881F991F1AF0BA95C9F7C0
S11318D014C0B13091F00E940D0DB1E008950C9444
S11318E00D0D672F782F8827B85F39F0B93FCCF3F7
S11318F0869577956795B395D9F73EF4909580953D
S1131900709561957F4F8F4F9F4F0895E89409C05C
S113191097FB3EF490958095709561957F4F8F4F1E
S11319209F4F9923A9F0F92F96E9BB279395F69534
S1131930879577956795B795F111F8CFFAF4BB0FB2
S113194011F460FF1BC06F5F7F4F8F4F9F4F16C016
S1131950882311F096E911C0772321F09EE8872FA0
S1131960762F05C0662371F096E8862F70E060E05C
S11319702AF09A95660F771F881FDAF7880F9695D5
S1131980879597F9089597F99F6780E870E060E07C
S113199008959FEF80EC089500240A941616170604
S11319A018060906089500240A941216130614064C
S11319B005060895092E0394000C11F4882352F0AF
S11319C0BB0F40F4BF2B11F460FF04C06F5F7F4F67
S11319D08F4F9F4F089557FD9058440F551F59F04E
S11319E05F3F71F04795880F97FB991F61F09F3F08
S11319F079F087950895121613061406551FF2CF31
S1131A004695F1DF08C0161617061806991FF1CF80
S1131A1086957105610508940895E894BB276627A7
S1131A207727CB0197F908950E94270D0C94DA0CBF
S1131A300E94CC0C38F00E94D30C20F0952311F0B6
S1131A400C94C30C0C94C90C11240C940E0D0E941C
S1131A50EB0C70F3959FC1F3950F50E0551F629FF7
S1131A60F001729FBB27F00DB11D639FAA27F00DF3
S1131A70B11DAA1F649F6627B00DA11D661F829F1A
S1131A802227B00DA11D621F739FB00DA11D621FFF
S1131A90839FA00D611D221F749F3327A00D611D1C
S1131AA0231F849F600D211D822F762F6A2F1124FE
S1131AB09F5750409AF0F1F088234AF0EE0FFF1F31
S1131AC0BB1F661F771F881F91505040A9F79E3F88
S1131AD0510580F00C94C30C0C940E0D5F3FE4F39D
S1131AE0983ED4F3869577956795B795F795E795DE
S1131AF09F5FC1F7FE2B880F911D9695879597F9E7
S1131B000895DB018F939F930E94B30DBF91AF9112
S1131B10A29F800D911DA39F900DB29F900D112443
S1131B200895A1E21A2EAA1BBB1BFD010DC0AA1F1A
S1131B30BB1FEE1FFF1FA217B307E407F50720F032
S1131B40A21BB30BE40BF50B661F771F881F991FAD
S1131B501A9469F760957095809590959B01AC01F6
S1131B60BD01CF0108950E94BE0DA59F900DB49FA5
S1131B70900DA49F800D911D11240895A29FB00182
S1131B80B39FC001A39F700D811D1124911DB29FAD
S1131B90700D811D1124911D0895AEE0B0E0E3EDB8
S1131BA0FDE00C94A4100D891E8986E08C831A83B1
S1131BB009838FEF9FE79E838D83AE01475E5F4F5E
S1131BC06F89788DCE0101960E94EF0DEF81F88523
S1131BD0E00FF11F10822E96E4E00C94C010ABE0ED
S1131BE0B0E0E5EFFDE00C9496106C017B018A01F6
S1131BF0FC0117821682838181FFCCC1CE0101963C
S1131C003C01F6019381F70193FD859193FF819146
S1131C107F01882309F4BAC1853239F493FD859193
S1131C2093FF81917F01853229F4B60190E00E94EF
S1131C30E60FE7CF912C212C312CFFE1F315D8F0DE
S1131C408B3279F038F4803279F08332A1F4232D89
S1131C5020611DC08D3261F0803369F4232D216031
S1131C6016C0832D8260382EE32DE4603E2E2AC0F8
S1131C70F32DF8601DC037FC2DC020ED280F2A304D
S1131C8040F08E32B9F436FC81C1232D2064322E0B
S1131C9019C036FE06C08AE0989E200D1124922EAB
S1131CA011C0EAE02E9E200D1124222EF32DF062A5
S1131CB03F2E08C08C3621F4832D8068382E02C054
S1131CC0883641F4F70193FD859193FF81917F015B
S1131CD08111B3CF982F9F7D9554933028F40C5FD6
S1131CE01F4F9FE399830DC0833631F0833771F022
S1131CF0833509F059C021C0F801808189830E5FC2
S1131D001F4F88248394912C530113C02801F2E0BF
S1131D104F0E511CF801A080B18036FE03C0692D1E
S1131D2070E002C06FEF7FEFC5010E94DB0F4C0132
S1131D308201F32DFF773F2E16C0280122E0420EC8
S1131D40511CF801A080B18036FE03C0692D70E0FB
S1131D5002C06FEF7FEFC5010E94D00F4C01F32D3D
S1131D60F0683F2E820133FC1BC0822D90E0881660
S1131D709906B0F4B60180E290E00E94E60F2A943E
S1131D80F4CFF50137FC859137FE81915F01B601EF
S1131D9090E00E94E60F21102A9421E0821A910813
S1131DA08114910471F7E8C0843611F0893641F545
S1131DB0F80137FE07C060817181828193810C5FD5
S1131DC01F4F08C060817181072E000C880B990B8E
S1131DD00E5F1F4FF32DFF763F2E97FF09C090959E
S1131DE08095709561957F4F8F4F9F4FF0683F2E80
S1131DF02AE030E0A3010E942210882E861845C0F4
S1131E00853731F4232D2F7EB22E2AE030E025C011
S1131E10932D997FB92E8F36C1F018F4883579F057
S1131E20B5C0803719F0883721F0B0C0E92FE061E0
S1131E30BE2EB4FE0DC0FB2DF460BF2E09C034FECF
S1131E400AC0292F2660B22E06C028E030E005C063
S1131E5020E130E002C020E132E0F801B7FE07C023
S1131E6060817181828193810C5F1F4F06C0608104
S1131E70718180E090E00E5F1F4FA3010E94221049
S1131E80882E8618FB2DFF773F2E36FE0DC0232D9E
S1131E902E7FA22E891458F434FE0BC032FC09C0E4
S1131EA0832D8E7EA82E05C0B82CA32C03C0B82C7D
S1131EB001C0B92CA4FE0FC0FE01E80DF11D808104
S1131EC0803321F49A2D997EA92E09C0A2FE06C062
S1131ED0B394B39404C08A2D867809F0B394A3FC18
S1131EE011C0A0FE06C0B21488F4280C922C9B18D2
S1131EF00EC0B21460F4B60180E290E00E94E60FD6
S1131F00B394F7CFB21418F42B1802C0982C212CD8
S1131F10A4FE10C0B60180E390E00E94E60FA2FE8A
S1131F2017C0A1FC03C088E790E002C088E590E0F8
S1131F30B6010CC08A2D867859F0A1FE02C08BE24E
S1131F4001C080E2A7FC8DE2B60190E00E94E60F9A
S1131F50891438F4B60180E390E00E94E60F9A9465
S1131F60F7CF8A94F301E80DF11D8081B60190E06A
S1131F700E94E60F8110F5CF222009F442CEB6016B
S1131F8080E290E00E94E60F2A94F6CFF601868163
S1131F90978102C08FEF9FEF2B96E2E10C94B21071
S1131FA0FC010590615070400110D8F78095909520
S1131FB08E0F9F1F0895FC01615070400190011025
S1131FC0D8F7809590958E0F9F1F08950F931F93B8
S1131FD0CF93DF93FB01238121FD03C08FEF9FEF9C
S1131FE02CC022FF16C046815781248135814217B7
S1131FF0530744F4A081B1819D012F5F3F4F31838A
S113200020838C93268137812F5F3F4F378326832C
S113201014C08B01EC01FB010084F185E02D0995CE
S1132020892BE1F6D80116968D919C91179701960C
S113203017969C938E931697CE01DF91CF911F91A3
S11320400F910895FA01AA27283051F1203181F126
S1132050E8946F936E7F6E5F7F4F8F4F9F4FAF4FAC
S1132060B1E03ED0B4E03CD0670F781F891F9A1FBF
S1132070A11D680F791F8A1F911DA11D6A0F711D73
S1132080811D911DA11D20D009F468943F912AE07F
S1132090269F11243019305D3193DEF6CF01089567
S11320A0462F4770405D4193B3E00FD0C9F7F6CF98
S11320B0462F4F70405D4A3318F0495D31FD405260
S11320C0419302D0A9F7EACFB4E0A69597958795F6
S11320D077956795BA95C9F70097610571050895D5
S11320E09B01AC010A2E0694579547953795279581
S11320F0BA95C9F7620F731F841F951FA01D089519
S1132100F999FECF92BD81BDF89A992780B50895BB
S1132110262FF999FECF1FBA92BD81BD20BD0FB6FF
S1132120F894FA9AF99A0FBE019608952F923F9265
S11321304F925F926F927F928F929F92AF92BF92D3
S1132140CF92DF92EF92FF920F931F93CF93DF937F
S1132150CDB7DEB7CA1BDB0B0FB6F894DEBF0FBEDC
S1132160CDBF09942A88398848885F846E847D8429
S11321708C849B84AA84B984C884DF80EE80FD802B
S11321800C811B81AA81B981CE0FD11D0FB6F894A1
S1112190DEBF0FBECDBFED010895F894FFCF62
S113219E32000000257500250054656D706572616E
S11321AE747572613A004300536F6E61723A004463
S11321BE69616D656E74726F3A0052504D3A004B00
S10521CE6D009E
S9030000FC
